:020000040800F2
:10000000002800208D0A0008DD0A0008DD0A00082B
:10001000DD0A0008DD0A0008DD0A00080000000013
:10002000000000000000000000000000DD0A0008E1
:10003000DD0A000800000000DD0A0008DD0A0008F3
:10004000DD0A0008DD0A0008DD0A0008DD0A0008F4
:10005000DD0A0008DD0A0008DD0A0008DD0A0008E4
:10006000DD0A0008DD0A0008DD0A0008DD0A0008D4
:10007000DD0A0008DD0A0008DD0A0008DD0A0008C4
:10008000DD0A0008DD0A0008DD0A0008DD0A0008B4
:10009000DD0A0008DD0A0008DD0A0008DD0A0008A4
:1000A000DD0A0008DD0A0008DD0A0008DD0A000894
:1000B000DD0A0008DD0A0008DD0A0008DD0A000884
:1000C000DD0A0008DD0A0008DD0A0008DD0A000874
:1000D000DD0A000835090008490900085D09000823
:1000E000DD0A0008DD0A000800000000DD0A000843
:1000F000DD0A0008DD0A0008DD0A0008DD0A000844
:10010000DD0A0008DD0A0008DD0A0008DD0A000833
:10011000DD0A0008DD0A0008DD0A0008DD0A000823
:10012000DD0A0008DD0A0008DD0A0008DD0A000813
:1001300010B5054C237833B9044B13B10448AFF321
:1001400000800123237010BD00000020000000008B
:10015000280B000808B5034B1BB103490348AFF354
:10016000008008BD0000000004000020280B0008EB
:1001700080B485B000AF78600023FB600BE0002303
:10018000BB6002E0BB680133BB60BB68FE2BF9D9E2
:10019000FB680133FB60FA687B689A42EFD300BFCB
:1001A00000BF1437BD4680BC7047000080B582B0E8
:1001B00000AF0123BB800423BB710123FB713B1DF6
:1001C0001946144800F06EF90223BB800423BB716A
:1001D0000123FB713B1D19460E4800F063F904230F
:1001E000BB800423BB710123FB713B1D19460948E9
:1001F00000F058F90823BB800423BB710123FB7175
:100200003B1D1946034800F04DF900BF0837BD46B5
:1002100080BD00BF0008014080B500AF0022012171
:10022000094800F0BBF900220221074800F0B6F9A6
:1002300000220421044800F0B1F9002208210248FC
:1002400000F0ACF900BF80BD0008014080B500AFF0
:1002500001220121094800F0A1F9002202210748EA
:1002600000F09CF901220421044800F097F90022D3
:100270000821024800F092F900BF80BD000801404B
:1002800080B500AF00220121094800F087F9012262
:100290000221074800F082F900220421044800F0FE
:1002A0007DF901220821024800F078F900BF80BDE5
:1002B0000008014080B500AF012201210C4800F088
:1002C0006DF9002202210A4800F068F90022042199
:1002D000074800F063F900220821054800F05EF9A4
:1002E00040F6B830FFF744FFFFF7B0FF00BF80BD16
:1002F0000008014080B500AF002201210C4800F049
:100300004DF9002202210A4800F048F90122042197
:10031000074800F043F900220821054800F03EF9A3
:1003200040F6B830FFF724FFFFF790FF00BF80BD15
:100330000008014080B483B000AF0346FB80FB8817
:10034000B3F5004F00F0A580B3F5004F00F3A38094
:10035000B3F5804F00F09B80B3F5804F00F39B8096
:10036000B3F5005F00F09180B3F5005F00F3938078
:10037000B3F5805F00F08780B3F5805F00F38B807A
:10038000B3F5006F7DD0B3F5006F00F38480B3F553
:10039000806F74D0B3F5806F7DDCB3F5007F6CD0D7
:1003A000B3F5007F77DCB3F5807F64D0B3F5807F51
:1003B00071DC802B5DD0802B6DDC202B48DC002B8A
:1003C00069DD013B1F2B66D801A252F823F000BF64
:1003D000570400085B040008970400085F04000845
:1003E00097040008970400089704000863040008B5
:1003F0009704000897040008970400089704000871
:100400009704000897040008970400086704000890
:100410009704000897040008970400089704000850
:100420009704000897040008970400089704000840
:100430009704000897040008970400089704000830
:100440009704000897040008970400086B0400084C
:10045000402B0CD01FE000231EE004231CE00823E7
:100460001AE00C2318E0102316E0142314E01823DC
:1004700012E01C2310E000230EE004230CE008230C
:100480000AE00C2308E0102306E0142304E01823FC
:1004900002E01C2300E0002318460C37BD4680BC58
:1004A000704700BF80B584B000AF7860396000232A
:1004B000FB600023BB603B681B88FF2B02D87B6876
:1004C000FB6002E07B680433FB603B681B881846D6
:1004D000FFF730FF03461A460F239340DA43FB68C9
:1004E0001B681A40FB681A603B689B78052B0BD091
:1004F0003B689B78042B07D03B689B78072B03D085
:100500003B689B78062B0AD13B689B78043B9B0099
:100510003A68D278134303F00F03BB602BE03B68CB
:100520009B78012B03D03B689B78002B06D13B685E
:100530009B789B0003F00F03BB601CE03B689B783B
:10054000082B02D10423BB6015E00823BB603B6885
:100550009B78022B07D17B68DB683A6812881A43C4
:100560007B68DA6007E07B68DB683A681288D24310
:100570001A407B68DA603B681B881846FFF7DAFE92
:1005800003461A46BB6803FA02F2FB681B681A436B
:10059000FB681A6000BF1037BD4680BD80B483B0D1
:1005A00000AF78600B467B8013467B707B78002B16
:1005B00003D07A887B681A6102E07A887B685A6186
:1005C00000BF0C37BD4680BC7047000080B400AF50
:1005D0000B4B5B689B0803F00303022B0AD0022B32
:1005E0000AD8002B02D0012B02D005E0054B03E016
:1005F000054B01E0044BFFE71846BD4680BC704741
:100600000010024000127A000024F40080B500AF10
:10061000FFF7DCFF0246054B5B681B0903F00F0385
:100620000349CB5C22FA03F3184680BD0010024058
:10063000480B000880B500AFFFF7E8FF0246054B06
:100640005B681B0A03F007030349CB5C22FA03F340
:10065000184680BD00100240400B000880B500AF76
:10066000FFF7D4FF0246054B5B68DB0A03F0070384
:100670000349CB5C22FA03F3184680BD0010024008
:10068000400B000880B584B000AF78607B682B4ACF
:10069000934218D14FF40073BB810623BB7301232F
:1006A000FB7307F10C0319462548FFF7FBFE4FF4D7
:1006B0008063BB810823BB7307F10C0319462048F4
:1006C000FFF7F0FE36E07B681E4A934216D1042302
:1006D000BB810623BB730123FB7307F10C0319468F
:1006E0001748FFF7DFFE0823BB810823BB7307F120
:1006F0000C0319461248FFF7D5FE1BE07B68124A2F
:10070000934217D14FF48063BB810623BB7301234F
:10071000FB7307F10C0319460C48FFF7C3FE4FF4B7
:100720000063BB810823BB7307F10C03194607481C
:10073000FFF7B8FE00BF1037BD4680BD003801404E
:10074000000801400044004000480040000C014007
:1007500080B584B000AF78603960584A3B68136058
:100760007B68574A934206D1564B9B69554A43F4DE
:100770008043936114E07B68534A934206D1514B06
:10078000DB69504A43F40033D36109E07B684F4A88
:10079000934205D14B4BDB694A4A43F48023D36132
:1007A0007B68DB6843F400527B68DA607B68DB6857
:1007B0003A6892781A437B68DA607B68DB683A684B
:1007C00012791A437B68DA607B68DB683A68D27812
:1007D0001A437B68DA607B681B693A6852781A436F
:1007E0007B681A617B685B693A6892791A437B6817
:1007F0005A617B68324A934203D1FFF72FFFF860BA
:1008000002E0FFF717FFF8603B681B781B011A46F0
:10081000FB68B3FBF2F31901FA6813469B0013441B
:100820009A0013443A6812789200B3FBF2F23B68E4
:100830001B781B011846FB68B3FBF0F3642000FB38
:1008400003F3D31A1B01224AA2FB03235B0903F023
:100850000F030B43BB607B68BA689A603B685B79A7
:10086000002B26D07B68DB683A6852791A437B6894
:10087000DA607B68124A934206D1164B1B68154A10
:1008800043F02003136014E07B680F4A934206D1C3
:10089000104B1B680F4A43F04003136009E07B686C
:1008A0000A4A934205D10B4B1B680A4A43F0800366
:1008B000136000BF1037BD4680BD00BF1C00002084
:1008C0000038014000100240004400400048004051
:1008D0001F85EB5104E100E080B485B000AFF86003
:1008E000B9601346FB71FB79002B06D100BFFB6892
:1008F0001B6803F02003002BF9D00D4B1B681B79FC
:10090000002B07D1FB685B689BB2DBB29AB2BB6875
:100910001A8007E0FB685B689BB203F07F039AB222
:10092000BB681A8000BF1437BD4680BC704700BF4B
:100930001C00002080B500AF024B1B689B689847E5
:1009400000BF80BD1C00002080B500AF024B1B68BB
:100950009B68984700BF80BD1C00002080B500AF99
:10096000024B1B689B68984700BF80BD1C0000209D
:1009700080B400AF074B9B69064A43F004039361C0
:10098000044B9B69034A43F00103936100BFBD46DA
:1009900080BC70470010024080B485B000AF786022
:1009A0000023FB600BE00023BB6002E0BB68013367
:1009B000BB60BB68FE2BF9D9FB680133FB60FA68AA
:1009C0007B689A42EFD300BF00BF1437BD4680BC9E
:1009D0007047000080B584B000AFFFF7C9FF8023E7
:1009E0003B700023BB7100237B7100233B7100230C
:1009F000FB7000237B700C23BB703B4619462248DA
:100A0000FFF7A6FE2048FFF73DFEFFF7CFFBFFF7FD
:100A10001DFC07F10F03002219461B48FFF75CFF7E
:100A2000FB7B613B032B27D801A252F823F000BFC8
:100A3000410A00084F0A00085D0A00086B0A000816
:100A4000FFF704FC4FF47A60FFF7A6FF14E0FFF70E
:100A500017FC4FF47A60FFF79FFF0DE0FFF72AFCC9
:100A60004FF47A60FFF798FF06E0FFF743FC4FF47E
:100A70007A60FFF791FF00BF41F28830FFF78CFFEB
:100A8000FFF7CAFBC5E700BF003801400D488546A7
:100A9000AFF300800C480D490D4A002302E0D45802
:100AA000C4500433C4188C42F9D30A4A0A4C0023B8
:100AB00001E013600432A242FBD300F011F8FFF70B
:100AC00089FFFEE700280020000000200000002031
:100AD000600B00080000002020000020FEE700005E
:100AE00070B500260C4D0D4C641BA410A64209D114
:100AF00000F01AF800260A4D0A4C641BA410A64206
:100B000005D170BD55F8043B98470136EEE755F81E
:100B1000043B98470136F2E7580B0008580B0008D1
:100B2000580B00085C0B0008F8B500BFF8BC08BC07
:100B30009E467047F8B500BFF8BC08BC9E4670479B
:100B4000000000000102030400000000000000009B
:080B5000010203040607080975
:040B5800550100083B
:040B5C00310100085B
:0400000508000A8D58
:00000001FF
