:020000040800F2
:1000000000280020710C0008C10C0008C10C000879
:10001000C10C0008C10C0008C10C00080000000061
:10002000000000000000000000000000C10C0008FB
:10003000C10C000800000000C10C0008C10C000841
:10004000C10C0008C10C0008C10C0008C10C00085C
:10005000C10C0008C10C0008C10C0008C10C00084C
:10006000C10C0008C10C0008C10C0008C10C00083C
:10007000C10C0008C10C0008C10C0008C10C00082C
:10008000C10C0008C10C0008C10C0008C10C00081C
:10009000C10C0008C10C0008C10C0008C10C00080C
:1000A000C10C0008C10C0008C10C0008C10C0008FC
:1000B000C10C0008C10C0008C10C0008C10C0008EC
:1000C000C10C0008C10C0008C10C0008C10C0008DC
:1000D000C10C00083D0B0008510B0008650B00081F
:1000E000C10C0008C10C000800000000C10C000891
:1000F000C10C0008C10C0008C10C0008C10C0008AC
:10010000C10C0008C10C0008C10C0008C10C00089B
:10011000C10C0008C10C0008C10C0008C10C00088B
:10012000C10C0008C10C0008C10C0008C10C00087B
:1001300010B5054C237833B9044B13B10448AFF321
:1001400000800123237010BD00000020000000008B
:100150000C0D000808B5034B1BB103490348AFF36E
:10016000008008BD00000000040000200C0D000805
:1001700080B485B000AF78600023FB600BE0002303
:10018000BB6002E0BB680133BB60BB68FE2BF9D9E2
:10019000FB680133FB60FA687B689A42EFD300BFCB
:1001A00000BF1437BD4680BC7047000080B582B0E8
:1001B00000AF0123BB800423BB710223FB713B1DF5
:1001C0001946144800F054F90223BB800423BB7184
:1001D0000223FB713B1D19460E4800F049F9042328
:1001E000BB800423BB710223FB713B1D19460948E8
:1001F00000F03EF90823BB800423BB710223FB718E
:100200003B1D1946034800F033F900BF0837BD46CF
:1002100080BD00BF0008014080B500AF0122012170
:10022000094800F0A1F900220221074800F09CF9DA
:1002300001220421044800F097F900220821024815
:1002400000F092F900BF80BD0008014080B500AF0A
:1002500000220121094800F087F901220221074804
:1002600000F082F900220421044800F07DF9012207
:100270000821024800F078F900BF80BD0008014065
:1002800080B500AF012201210C4800F06DF9002279
:1002900002210A4800F068F900220421074800F012
:1002A00063F900220821054800F05EF940F6B830F5
:1002B000FFF75EFFFFF7B0FF00BF80BD0008014001
:1002C00080B500AF002201210C4800F04DF900225A
:1002D00002210A4800F048F901220421074800F0F1
:1002E00043F900220821054800F03EF940F6B830F5
:1002F000FFF73EFFFFF790FF00BF80BD0008014001
:1003000080B483B000AF0346FB80FB88B3F5004F99
:1003100000F0A580B3F5004F00F3A380B3F5804F44
:1003200000F09B80B3F5804F00F39B80B3F5005F36
:1003300000F09180B3F5005F00F39380B3F5805F28
:1003400000F08780B3F5805F00F38B80B3F5006F1A
:100350007DD0B3F5006F00F38480B3F5806F74D067
:10036000B3F5806F7DDCB3F5007F6CD0B3F5007F13
:1003700077DCB3F5807F64D0B3F5807F71DC802BB0
:100380005DD0802B6DDC202B48DC002B69DD013B30
:100390001F2B66D801A252F823F000BF23040008E7
:1003A00027040008630400082B0400086304000805
:1003B00063040008630400082F04000863040008B5
:1003C0006304000863040008630400086304000871
:1003D0006304000863040008330400086304000891
:1003E0006304000863040008630400086304000851
:1003F0006304000863040008630400086304000841
:100400006304000863040008630400086304000830
:10041000630400086304000837040008402B0CD074
:100420001FE000231EE004231CE008231AE00C2335
:1004300018E0102316E0142314E0182312E01C2304
:1004400010E000230EE004230CE008230AE00C2354
:1004500008E0102306E0142304E0182302E01C2324
:1004600000E0002318460C37BD4680BC704700BF33
:1004700080B584B000AF786039600023FB60002352
:10048000BB603B681B88FF2B02D87B68FB6002E0E7
:100490007B680433FB603B681B881846FFF730FF1E
:1004A00003461A460F239340DA43FB681B681A4041
:1004B000FB681A603B689B78052B0BD03B689B78E8
:1004C000042B07D03B689B78072B03D03B689B78B5
:1004D000062B0AD13B689B78043B9B003A68D27894
:1004E000134303F00F03BB602BE03B689B78012BA9
:1004F00003D03B689B78002B06D13B689B789B0020
:1005000003F00F03BB601CE03B689B78082B02D113
:100510000423BB6015E00823BB603B689B78022B7B
:1005200007D17B68DB683A6812881A437B68DA6017
:1005300007E07B68DB683A681288D2431A407B6820
:10054000DA603B681B881846FFF7DAFE03461A4656
:10055000BB6803FA02F2FB681B681A43FB681A6067
:1005600000BF1037BD4680BD80B483B000AF786057
:100570000B467B8013467B707B78002B03D07A88F8
:100580007B681A6102E07A887B685A6100BF0C3789
:10059000BD4680BC7047000080B400AF0B4B5B6869
:1005A0009B0803F00303022B0AD0022B0AD8002B6E
:1005B00002D0012B02D005E0054B03E0054B01E022
:1005C000044BFFE71846BD4680BC70470010024050
:1005D00000127A000024F40080B500AFFFF7DCFFC2
:1005E0000246054B5B681B0903F00F030349CB5C14
:1005F00022FA03F3184680BD001002402C0D0008BB
:1006000080B500AFFFF7E8FF0246054B5B681B0AA9
:1006100003F007030349CB5C22FA03F3184680BDBD
:1006200000100240240D000880B500AFFFF7D4FF92
:100630000246054B5B68DB0A03F007030349CB5C0A
:1006400022FA03F3184680BD00100240240D000872
:1006500080B584B000AF786039607B68594A9342B6
:1006600009D1594B9B69584A43F480439361574AD7
:100670003B6813601AE07B68554A934209D1524B9C
:10068000DB69514A43F40033D361504A3B685360FD
:100690000CE07B684F4A934208D14B4BDB694A4AD6
:1006A00043F48023D361494A3B6893607B68DB68ED
:1006B00043F400527B68DA607B68DB683A68128832
:1006C0001A437B68DA607B68DB683A6812891A43F0
:1006D0007B68DA607B68DB683A6852891A437B681A
:1006E000DA607B681B693A6892891A437B681A61F1
:1006F0007B685B693A68D2891A437B685A617B6878
:10070000304A934203D1FFF78FFFF86002E0FFF712
:1007100077FFF8603B685B681B01FA68B2FBF3F394
:100720001901FA6813469B0013449A001A443B6867
:100730005B689B00B2FBF3F23B685B681B01F868E7
:10074000B0FBF3F3642000FB03F3D31A1B01224A2E
:10075000A2FB03235B0903F00F030B43BB607B6821
:10076000BA689A603B681B8A002B26D07B68DB68DE
:100770003A68128A1A437B68DA607B68114A9342AE
:1007800006D1164B1B68154A43F02003136014E092
:100790007B680F4A934206D1104B1B680F4A43F007
:1007A0004003136009E07B680A4A934205D10B4B72
:1007B0001B680A4A43F08003136000BF1037BD4630
:1007C00080BD00BF00380140001002401C00002026
:1007D00000440040004800401F85EB5104E100E068
:1007E00080B485B000AFF860B9601346FB71FB7947
:1007F000012B06D100BFFB681B6803F02003002B10
:10080000F9D0FB684D4A93422ED14D4B1B681B8992
:10081000B3F5805F12D14A4B1B685B89002B05D171
:10082000FB685B689AB2BB681A8082E0FB685B6811
:100830009BB2DBB29AB2BB681A807AE0404B1B686D
:100840005B89002B07D1FB685B689BB2DBB29AB275
:10085000BB681A806DE0FB685B689BB203F07F03A6
:100860009AB2BB681A8064E0FB68364A93422ED184
:10087000334B5B681B89B3F5805F12D1304B5B68EB
:100880005B89002B05D1FB685B689AB2BB681A8054
:100890004FE0FB685B689BB2DBB29AB2BB681A8020
:1008A00047E0274B5B685B89002B07D1FB685B68DF
:1008B0009BB2DBB29AB2BB681A803AE0FB685B6815
:1008C0009BB203F07F039AB2BB681A8031E0FB68E9
:1008D0001D4A93422DD11A4B9B681B89B3F5805F4B
:1008E00012D1174B9B685B89002B05D1FB685B68B5
:1008F0009AB2BB681A801CE0FB685B689BB2DBB2F3
:100900009AB2BB681A8014E00D4B9B685B89002B80
:1009100007D1FB685B689BB2DBB29AB2BB681A80F6
:1009200007E0FB685B689BB203F07F039AB2BB6889
:100930001A8000BF1437BD4680BC704700380140A4
:100940001C000020004400400048004080B584B0F6
:1009500000AF78607B68734A934249D14FF40073CB
:10096000BB810623BB730123FB7307F10C031946FC
:100970006D48FFF77DFD4FF48063BB810123BB739E
:1009800007F10C0319466848FFF772FD674B1B68B7
:10099000DB89B3F5007F05D0644B1B68DB89B3F5B9
:1009A000407F0AD14FF40063BB810123BB7307F181
:1009B0000C0319465C48FFF75BFD5C4B1B68DB8949
:1009C000B3F5807F06D0594B1B68DB89B3F5407FB8
:1009D00040F0A3804FF48053BB810623BB730123F7
:1009E000FB7307F10C0319464F48FFF741FD94E0F4
:1009F0007B684F4A934244D10423BB810623BB73D7
:100A00000123FB7307F10C0319464748FFF730FD3C
:100A10000823BB810123BB7307F10C03194642482D
:100A2000FFF726FD414B5B68DB89B3F5007F05D0FE
:100A30003E4B5B68DB89B3F5407F09D10123BB8165
:100A40000123BB7307F10C0319463748FFF710FD6C
:100A5000364B5B68DB89B3F5807F05D0334B5B6831
:100A6000DB89B3F5407F58D10223BB810623BB73DA
:100A70000123FB7307F10C0319462B48FFF7F8FC21
:100A80004BE07B682B4A934247D14FF48063BB8194
:100A90000623BB730123FB7307F10C031946264899
:100AA000FFF7E6FC4FF40063BB810123BB7307F142
:100AB0000C0319462048FFF7DBFC1C4B9B68DB89C5
:100AC000B3F5007F05D0194B9B68DB89B3F5407FF8
:100AD0000AD14FF40053BB810123BB7307F10C0310
:100AE00019461548FFF7C4FC104B9B68DB89B3F52A
:100AF000807F05D00D4B9B68DB89B3F5407F0CD11F
:100B00004FF48043BB810623BB730123FB7307F1C2
:100B10000C0319460848FFF7ABFC00BF1037BD4671
:100B200080BD00BF00380140000801401C000020CB
:100B30000044004000480040000C014080B500AF78
:100B4000024B1B685B69984700BF80BD1C000020FA
:100B500080B500AF024B5B685B69984700BF80BD02
:100B60001C00002080B500AF024B9B685B69984772
:100B700000BF80BD1C00002080B400AF074B9B6904
:100B8000064A43F004039361044B9B69034A43F014
:100B90000103936100BFBD4680BC70470010024056
:100BA00080B500AF1B4B1B78423B102B30D801A205
:100BB00052F823F0FF0B0008110C0008110C00087C
:100BC000110C0008F90B0008110C0008110C0008AA
:100BD000110C0008110C0008110C00080B0C000887
:100BE000110C0008110C0008110C0008110C000871
:100BF000110C0008050C0008FFF70EFB08E0FFF7DA
:100C000025FB05E0FFF73CFB02E0FFF759FB00BFC7
:100C100000BF80BD2800002080B586B000AFFFF780
:100C2000ABFFFFF7C3FA4FF416537B600023FB8141
:100C300020233B820B4B7B6100237B8100233B8184
:100C40000023BB810C233B803B4619460648FFF737
:100C5000FFFC0548FFF77AFE002204490248FFF72F
:100C6000BFFDF9E7A10B0008003801402800002073
:100C70000D488546AFF300800C480D490D4A00230E
:100C800002E0D458C4500433C4188C42F9D30A4A41
:100C90000A4C002301E013600432A242FBD300F0AF
:100CA00011F8FFF7B9FFFEE7002800200000002040
:100CB00000000020440D0008000000202C0000204F
:100CC000FEE7000070B500260C4D0D4C641BA4100F
:100CD000A64209D100F01AF800260A4D0A4C641BFE
:100CE000A410A64205D170BD55F8043B98470136C3
:100CF000EEE755F8043B98470136F2E73C0D000853
:100D00003C0D00083C0D0008400D0008F8B500BF80
:100D1000F8BC08BC9E467047F8B500BFF8BC08BCDC
:040D20009E46704734
:100D240000000000010203040000000000000000B5
:080D340001020304060708098F
:040D3C005501000855
:040D40003101000875
:0400000508000C7172
:00000001FF
